:4000000000800020110000002D0800002D08000008B5044B1A6803F53F5302331A6000F025FC00BFFA46004010B5054C237833B9044B13B10448AFF300800123237010BDEC
:40004000D089FF1F0000000020810000084B10B51BB108480849AFF300800848036803B910BD074B002BFBD0BDE81040184700BF0000000020810000D489FF1F0881FF1F5F
:40008000000000002DE9F04F8BB000230793089362B600F013FF00F0F7FF00F079FA00F053F90020014600F057F9834800F0C8FE45F2082044F2506145F6480245F2FC3360
:4000C00000F030FA00F0E0F9012000F093FE002001F010F8002406E001F0CAFA18B90A2000F024FE0124002CF6D0F02000F010FB724D002301930093984699469B46CEE01F
:400100009846BDF8160002F0DBFE0546012000F00DFE44F25063019343F2BC4300934FF0010914E0BDF81030012B10D19846BDF8180002F0C5FE0546012000F0F7FD45F676
:400140004803019344F29E6300934FF00209B8F1010F40F0988000E0254605A800F0A4F903A800F0A9F9B9F1010F07D1BDF80E80BDF8160002F0A4FE044606E0BDF8108020
:40018000BDF8180002F09CFE04462846214602F0E5FD0646089D07990891079002F0E0FD0146284602F0DCFD454902F095FF0546002103F07BF808B105F100452846414911
:4001C00003F092F800B13F4D019802F07DFE0746214602F0C3FD394602F07EFF3A4902F0C7FE3A4902F0BCFD03F088F882463846214602F071FF364901F052FA354902F0D5
:40020000B7FE0746504602F05BFE394602F0A8FD03F074F8074628462F4901F041FA0546009802F051FE0146284602F055FF2B4902F09EFE0546384602F042FE294602F08A
:400240008FFD03F05BF8F02800D9F020C0B24946324600F06FFA012000F068FDB8F1010F3FF47AAF002306E00AAA02EB8302002142F80C1C0133022BF6DDF02000F048FA26
:4002800025464FF000090BF1010B154B9B4503DD00F07EF94FF0000B012000F047FD05A800F002F903A800F007F9BDF80E30012B7FF438AF24E700BF81030000007EBB46E4
:4002C000000040400000FA4400007043000070426666A63F00002042CDCCAC3F000061437F380100F8B50C46174600250BE023780A2B02D10D2000F005FE661C207800F0AF
:4003000001FE01353446BD42F1DB3846F8BD00BFF8B50F461446002612E000F0DDFD054670B100F0EFFD01360D2D03D10A2000F0E9FD0A257B1C3D70013C0A2D02D01F4668
:40034000002CEADC3046F8BD08B500F0DFFC08BD08B500F073FC08BD38B504460D46002000F030FD002000F039FD204600F07AFC204600F07DFC284600F0D8FC38BD00BFA4
:40038000F8B501F053F8044600F0D6FF074600F059FF064601F0F4F8054614F0400F09D001F04AF8044601F053F8201A80B2354B988003E001F040F8324B988017F0400F5C
:4003C00009D000F0BFFF044600F0C8FF201A80B22C4BD88003E000F0B5FF2A4BD88016F0400F09D000F034FF044600F03DFF201A80B2244B188003E000F02AFF214B1880AC
:4004000015F0400F09D001F0C1F8044601F0CAF8201A80B21B4B588003E001F0B7F8194B58800C2001F06EF8012001F05FF80C2001F080F8012001F071F80C2000F0DCFE8D
:40044000012000F0CDFE0C2001F006F9012001F0F7F80A2000F080FC022001F053F8022001F068F8022000F0C7FE022001F0F4F800F0DCFF00F060FF00F0E4FE01F080F8F1
:40048000F8BD00BFEC89FF1F08B5064800F0D8FC01F01EF800F0A2FF00F026FF01F0C2F808BD00BF810300000246024B03CB106051607047EC89FF1F184B1B889BB2184A83
:4004C0001288934202D90023038001E001230380124B5B889BB2124A5288934202D90023438001E0012343800C4B9B889BB20C4A9288934202D90023838001E0012383804E
:40050000064BDB889BB2064AD288934202D90023C38070470123C380704700BFEC89FF1F0C81FF1F10B4044C20806180E380A2805DF8044B704700BF0C81FF1F70B50546D9
:400540000C464E0800F03EFE304600F01BFE204600F012FE284600F0E9FB00F0FFFD70BD08B502F087F806A3D3E9002302F012FA0022054B02F0E4F802F09CFB08BD00BF66
:400580000000000000FEAF4000001E40AFF30080F8B500F087FD002000F08CFD002800F09F8000F099FD0746FFF7DAFF064602F073F804460D464CA3D3E9002302F050FBEA
:4005C000002800F0898030464B4902F083FE90B915E050203C21FFF7B1FF012000F08AFD00F094FD4FF4167000F0A0FB002000F081FD013600E00026022EEADD66E03046C1
:400600003D4902F053FED8B130463C4902F062FE90B915E028205021FFF790FF012000F069FD00F073FD4FF4FA7000F07FFB002000F060FD013600E00026052EEADD45E0E8
:4006400030462E4902F032FEF0B12046294628A3D3E9002302F0FAFA90B915E01E205F21FFF76CFF012000F045FD00F04FFD4FF4C87000F05BFB002000F03CFD013600E058
:400680000026082EEADD21E02046294618A3D3E9002302F0C7FAC8B1FFF75AFE14206E21FFF74CFF012000F025FD00F02FFDC82000F03CFB002000F01DFD114822462B466F
:4006C00003F0EEF90F4803F02FFAE7E70E48394622462B4603F0E4F94FF4FA7000F026FBF8BD00BFAFF300809A9999999999B93F66666666666610400000A040000090401A
:40070000308100003881000064810000AFF3008010B50446002000F055FB002000F05EFB04F10F00C0B200F09DFA204600F0A0FA10BD00BF38B505461446012936D11046DE
:40074000374902F0C7FD40B1C5F1F000C0B200F08FFAFF2000F086FA38BD2046304902F0A5FDA8B120462F4902F0B4FD80B1284601F070FF00222C4B01F0E2FF02F07AFA20
:40078000C043C0B200F06EFAF02000F071FA38BD2046244902F08AFD00283FD0E843C0B200F060FAF02000F063FA38BD022935D110461B4902F08EFD38B1E843C0B200F072
:4007C00051FAF02000F054FA38BD2046144902F06DFDB0B12046134902F07CFD88B1284601F038FF0022104B01F0AAFF02F042FAC0F1F000C0B200F03BFAFF2000F032FA37
:4008000038BD2046074902F051FD38B1C5F1F000C0B200F02DFAFF2000F024FA38BD00BF000048C3000016C40000E03F08B503F045F803680C2B00D1FEE7FEE708B5094B95
:400840001A681044084BC31AB3F5006F02DC054B186005E003F032F80C2303604FF0FF32104608BD1481FF1F508AFF1F08B5104E104D16E029686B68AC68002204E051F8B6
:40088000040B43F8040B0432A242F8D1E868002203E0002143F8041B04328242F9D11035013E002EE6D103F00FF8FFF7EBFBFEE7010000008883000008B5124A124B1A6048
:4008C000124A136843F40073136000230AE0032B03D80F4A52F8231000E00E490E4A42F8231001332F2BF2D90C4B1A780C4B1A70094A0C4B1A6000F0F7F800220A4B1A6005
:4009000008BD00BF0004FA050CED00E014ED00E0000000002D0800000080FF1FBC7600400481FF1F08ED00E00081FF1FFEE700BFF0B40022174611E050F82760F3B226F0D8
:40094000FF0608E001EB420511F812406D78A5550132013BDBB2002BF4D10137242FEBD9F0BC704708B50A46002103F04BF808BD38B50122304B1A801823304A13701925BB
:4009800002321580023213701D21023211800232137077210232118002321370EF21023211800232137040F2AF4102321180023213700222224B1A7008224FF040231A704E
:4009C000032103F5007319701E4B1B78DBB21E490B701E4B1A8041F25122023B1A8000240CE01B4B1B7803F0010343EA440404F003044FF4F07000F043FE013D0DB1032C85
:400A0000EFD115B90320FFF791FF124B4FF480721A8007221A7000220F490A704820023108701A700222033B1A700C4A137843F03F03137038BD00BF804000408240004094
:400A40000043004008010049A146004022420040254200400440004006400040A2430040F8B5184B1B78DBB2174E3478E4B2174F3D78EDB203F00701154A11701B0901323D
:400A8000137044F00303337045F003033B708022104B1A704023104A137002321370082302F21D2213702021033211702D3213700A2000F051F93D7034704422074B1A70C1
:400AC000F8BD00BFCF010049F8460040F94600406E5800402D510040095900407658004008B502F019FF08BD38B572B63A4A137843F00403137000240CE0384963001A1964
:400B000052000A4423445B00C8589188FFF72AFF0134E4B2072CF0D900240BE02F49A3001A1952000A44106B516B0622FFF7D8FF0134E4B2002CF1D04FF090402849FFF7DD
:400B4000F7FE284A137843F0020313701032137843F002031370244C237843F040032370A2F58632513A137843F0100313701F481F490822FFF7B4FF1E481F490A22FFF76C
:400B8000AFFF1E481E490822FFF7AAFF1D481E490822FFF7A5FF1D481D490A22FFF7A0FF1C481D490822FFF79BFF1C4A137843F0080313701A4D61232B70FFF7D9FE8123A8
:400BC0002B700122174B1A70FFF74AFF164821460E22FFF785FF38BDE84600406C8100009400004803500140A0430040025100407C080048C051004084080048F2510040B3
:400C000090080048125100409808004820510040A008004832510040AC080048224300400048004004000840B0430040024A137843F080031370704777650040024A137883
:400C400003F07F031370704777650040014B1870704700BF07650040014B1870704700BF47650040014B1870704700BF27650040014B1870704700BF37650040014B18706D
:400C8000704700BF87650040014B1878704700BF67650040014B1878704700BF5765004008B501E0FFF7F6FFFFF7EEFF10F0100FF8D108BD10B5134A137803F0C00343F037
:400CC00009031370104C237843F001032370FF20FFF7BCFFFF20FFF7BFFF2820FFF7C2FF2820FFF7C5FF0020FFF7C8FF00F0D0FC237843F01003237000F0CEFCFFF7D0FF74
:400D000010BD00BF776500409765004008B5054B1B7823B9FFF7CEFF0122024B1A70FFF785FF08BDFC89FF1F01BE704710B5044605E0084B186800F0A3FCA4F50044B4F562
:400D4000004FF6D8034B586800FB04F000F098FC10BD00BF1881FF1F08B5034B1B7A03FB00F000F08DFC08BD1881FF1F70B504460E46074B1D681F2802D90020FFF7D4FF6A
:400D800004F01F04103455F8240045F8246070BD08ED00E038B504460D46072902D90020FFF7C2FF1F2C02D90020FFF7BDFF04F01F0000F1604000F564406D01EDB2057081
:400DC00038BD00BF044A137803F07F03C001C0B203431370704700BF30510040044A137803F0FE0300F0010018431070704700BFF0510040044A137803F0DF03400100F04F
:400E0000200018431070704720510040014B1B685864704708ED00E04001C0B2014B1870704700BF01E400E00222014B1A60704700E100E00222014B1A60704780E100E032
:400E400010B50446FFF7F6FF2046FFF7DFFF0720FFF7E2FFFFF7E8FF10BD00BF7222084B1A702022A3F580731A700622A1331A70472210331A700022B03B1A70704700BF46
:400E80008865004010B500F003FC04460A4A137843F020031370A2F58072137843F0100313700132137843F01003137000F036F9204600F0F1FB10BD9865004008B5054B73
:400EC0001B7823B9FFF7CAFF0122024B1A70FFF7D9FF08BDFD89FF1F084B1B78DBB213F0200F06D0064A1078C0B213F01E0F02D17047002070470020704700BF686400409B
:400F00004B650040034B1B7813F0040FFAD1024B18707047696400404964004008B50A280FD00C2802D0082806D102E04FF4805209E04FF4807206E00020FFF7F5FE002278
:400F400001E04FF480620021094B198042F2107303FB02F303F6C413064A82FB0302DB17C3EBE223044A1360044B198008BD00BF3E8AFF1FAD8BDB68448AFF1F408AFF1F0A
:400F800010B500F085FB04461E4A137843F0020313701032137843F002031370193A137843F0010313701032137843F00103137002F5AA521932137843F0030313700422B2
:400FC000114B1A70013B1A7802F0BF021A701A7842F003021A700822053B1A700222A3F59753123B1A70094A137843F0080313700A20FFF7B1FE0122054B1A60204600F08B
:401000004BFB10BDAB4300400E5900402F5B004080E200E010B504460A280DD00C2802D0082804D101E0C42207E0442205E00020FFF77AFEC42200E08422034B1A70204662
:40104000FFF76CFF10BD00BF0A59004008B5102000F072F800200721FFF79CFE00200749FFF784FE064A137843F0060313700C20FFF7D0FF0022034B1A8008BDF11000007E
:40108000095900403C8AFF1F08B5054B1B7823B9FFF7DCFF0122024B1A70FFF771FF08BDFF89FF1F024A137843F00103137070470859004010B5074B1B7813F0010401D125
:4010C0000028F8D024B10120FFF746FE014B1B78204610BD09590040034B1B88034A1088181A00B2704700BFA25B0040408AFF1F704700BF044A137803F0FD03400000F055
:40110000020018431070704720510040024B1878C0F34000704700BF21510040054A137843F0020313701032137843F002031370704700BFA2430040034B1A7800F0F800F2
:4011400010431870704700BF82400040024A137843F080031370704776650040024A137803F07F031370704776650040014B1870704700BF06650040014B1870704700BF5A
:4011800046650040014B1870704700BF2665004008B50B4A137803F0C00343F0090313702032137843F001031370FF20FFF7DEFFFF20FFF7E1FF7F20FFF7E4FF08BD00BFA0
:4011C0007665004008B5054B1B7823B9FFF7E0FF0122024B1A70FFF7B9FF08BD008AFF1F044A137803F0DF03400100F02000184310707047F0510040044A137803F0F1039C
:4012000000F00E0018431070704700BF7D500040084A137843F0020313701032137843F00203137002F65932137843F001031370704700BFA3430040014B1870704700BF84
:401240000F4F0040014B1878704700BF0F4F0040014B188880B27047104F0040014B1880704700BF104F0040014B188880B27047144F0040014B1880704700BF124F004000
:4012800008B5164A137803F0010313700232137803F0FC031370124B1A7802F0CF021A701A7842F030021A701A7802F0F0021A701A7842F00F021A700A4A137843F00103A7
:4012C000137045F6BF50FFF7C9FF45F6BF50FFF7D1FF0820FFF7B0FF08BD00BF0C4F0040174F00400D4F004008B5054B1B7823B9FFF7C6FF0122024B1A70FFF789FF08BDB1
:40130000018AFF1F084A137843F0080313701032137843F00803137002F67132137843F001031370704700BFA3430040014B1870704700BF274F0040014B1878704700BF0A
:40134000274F0040014B188880B27047284F0040014B1880704700BF284F0040014B188880B270472C4F0040014B1880704700BF2A4F004008B5164A137803F00103137055
:401380000232137803F0FC031370124B1A7802F0CF021A701A7842F030021A701A7802F0F0021A701A7842F00F021A700A4A137843F00103137045F6BF50FFF7C9FF45F602
:4013C000BF50FFF7D1FF0820FFF7B0FF08BD00BF244F00402F4F0040254F004008B5054B1B7823B9FFF7C6FF0122024B1A70FFF789FF08BD028AFF1F084A137843F004036D
:4014000013701032137843F00403137002F66532137843F001031370704700BFA3430040014B1870704700BF1B4F0040014B1878704700BF1B4F0040014B188880B270476A
:401440001C4F0040014B1880704700BF1C4F0040014B188880B27047204F0040014B1880704700BF1E4F004008B5164A137803F0010313700232137803F0FC031370124B7E
:401480001A7802F0CF021A701A7842F030021A701A7802F0F0021A701A7842F00F021A700A4A137843F00103137045F6BF50FFF7C9FF45F6BF50FFF7D1FF0820FFF7B0FFF0
:4014C00008BD00BF184F0040234F0040194F004008B5054B1B7823B9FFF7C6FF0122024B1A70FFF789FF08BD038AFF1F044A137803F0EF03000100F01000184310707047F7
:40150000C0510040044A137803F0F10300F00E0018431070704700BF64500040044A137803F0EF03000100F01000184310707047F0510040044A137803F0F10300F00E00C7
:4015400018431070704700BF7C500040084A137843F0010313701032137843F00103137002F64D32137843F001031370704700BFA3430040014B1870704700BF034F0040BC
:40158000014B1878704700BF034F0040014B188880B27047044F0040014B1880704700BF044F0040014B188880B27047084F0040014B1880704700BF064F004008B5164A7A
:4015C000137803F0010313700232137803F0FC031370124B1A7802F0CF021A701A7842F030021A701A7802F0F0021A701A7842F00F021A700A4A137843F00103137045F6C3
:40160000BF50FFF7C9FF45F6BF50FFF7D1FF0820FFF7B0FF08BD00BF004F00400B4F0040014F004008B5054B1B7823B9FFF7C6FF0122024B1A70FFF789FF08BD048AFF1FA3
:40164000044A137803F0EF03000100F0100018431070704730510040044A137803F0F10300F00E0018431070704700BF1C500040024B1878C0F38000704700BF2151004065
:401680000230800803D000BF01380046FCD17047EFF3108072B6704780F31088704700BF2DE9F0418AB007460E4600F083F99B4D044695F90030013303D0304600F00CFE14
:4016C00018B920460AB0BDE8F081384600F004FE8046002832D13046002101F0DDFD0028EFD08F4A0123384601920093CDF8208000F0D2FFCDE90201304600F0CDFF95F9F9
:401700000030884F00265A1CCDE90401CDE906670DD0022B0BD0684600F042FD002800F09A80089B1BB102F0C9F8089B0360DDE9060101F0BFFA0AB0BDE8F0813846002126
:4017400001F0AAFD18B33046002101F0A5FD8046002855D0724900230122384608930092019100F099FFCDE90201304600F094FF95F9003000260027CDE90401CDE9066768
:40178000002BC8D0674B0022CDE90623CFE7204600F09AFD8046002862D02046002101F07BFD00288DD0384600F08EFD002888D0304600F089FD002883D0594900230422B0
:4017C000384608930092019100F066FFCDE90201304600F061FF95F9003000260027022BCDE90401CDE9066700F09280684600F0D7FC002800F08C80089B002B97D092E77D
:40180000304600F061FD00283FF45BAF3046002101F04CFD00283FF454AF414A0123384600930192CDF8208000F036FFCDE90201304600F031FF2B78CDE90401002B3FD08C
:4018400039490020022BCDE9060133D102F036F821230360D0E702F031F82123036060E7384600F031FD002897D0304600F02CFD002892D0204600F02FFD034628BB2849EE
:401880000122384608930092019100F005FFCDE90201304600F000FF2C78CDE904017CB10020002102460B4601F074F8022CCDE90601CBD0684600F073FC00289CD1C5E71F
:4018C00000220023CDE90623F4E7154A0323384600930192CDF8208000F0DEFECDE90201304600F0D9FE95F90030CDE90401FBB90E4B4FF0604238460021CDE9062301F0C3
:40190000D5FC002836D195F90030022B7FF46EAF01F0D4FF222303606EE700BF2881FF1FA88100000000F03F0000F0FFFFFFEF471D4B002238460021CDE9062301F0B6FCBF
:401940000028E0D030464FF07C5101F011FB00F0A3FE06460F4600F025FC02460B463046394601F055F90028CDD1104B0022CDE90623C8E730464FF07C5101F0F9FA00F0D9
:401980008BFE06460F4600F00DFC02460B463046394601F03DF90028B5D1054B4FF06042CDE90623AFE700BF0000F07F0000F0FFFFFFEFC72DE9F04F31F0004987B00D46E1
:4019C0000C4612D020F0004ABAF1FF4F8046064605DD4F4807B0BDE8F04F00F097BCB9F1FF4F07DDBAF17E5FF3D14FF07E5007B0BDE8F08F002848DB0027B9F1FF4F3CD071
:401A0000B9F17E5F54D0B4F1804F40465DD0B4F17C5F19D000F054FCBAF1FF4F28D0BAF1000F25D0BAF17E5F22D0F60F013E57EA060358D0B9F19A4F72DD364B9A453DDC00
:401A4000002C41DB0020D2E7002E47DA00F038FCBAF1FF4F02D0BAF1000FE3D1AAF17E5A57EA0A0340D0012FC1D100F10040BEE7002C40DB002EBADAF0E7BAF17E5FB4D044
:401A800027DD002CDEDB2846B1E7B9F1974F13DAB9F17E5F0ADB4FEAE953C3F1960349FA03F202FA03F34B4500F03B820027A7E7002C26DB40469AE702279EE7164B9A454E
:401AC00040F38F82002CBDDD1448014601F050FA8DE7002CB6DA05F1004088E707B0BDE8F04F00F0DDBA4046014601F037F9014601F0F2FA7BE701464FF07E5001F0ECFA68
:401B0000B8E741464FF07E5001F0E6FA6FE700BF34810000F7FF7F3F0700803FCAF24971BAF5000F80F205824FF0974101F020FA82466FF01701B54A4FEAEA53CAF3160A7D
:401B40007F3B924503EB010C4AF07E5840F3EE81AF4B9A4540F3408200220CF1010CA8F5000801920392AB4B019A404653F82230CDF814C019469A4601F0F0F8514681469D
:401B80004046CDF808A001F0EBF801464FF07E5001F0A2FA034648461946049301F0E8F94FEA6801039A41F00051C34601F5802120F47F6828F00F080A4482461146404660
:401BC000039201F0D5F90146484601F0C7F8039A02998146104601F0C1F80146584601F0BDF80146404601F0C3F90146484601F0B5F8049B194601F0BBF9514683465046FC
:401C000001F0B6F90146814601F0B2F982490290484601F0ADF9814901F0A2F8494601F0A7F97F4901F09CF8494601F0A1F97D4901F096F8494601F09BF97B4901F090F866
:401C4000494601F095F9794901F08AF8029B0146184601F08DF981464146504601F080F8594601F085F9494601F07AF841468146404601F07DF96E49039001F071F84946AD
:401C8000CDF8089001F06CF820F47F6929F00F094946404601F06CF949468046584601F067F963498346484601F058F8039A114601F054F80146029801F050F8514601F07F
:401CC00057F90146584601F04BF883464046594601F046F820F47F6A2AF00F0A5046554901F046F954498146504601F041F941460290504601F032F80146584601F02EF8DF
:401D00004E4901F035F9029B0146184601F028F84B4B019953F8211001F022F8DDF814C08046604601F0D0F88246019A454B414653F822B0484601F013F8594601F010F85C
:401D40005146CDF804A001F00BF820F47F6A2AF00F0A0199504601F001F8594600F0FEFF494600F0FBFF0146404600F0F7FF24F47F6424F00F04013F57EA06038046214694
:401D800028460CBF304E4FF07E5600F0E7FF514601F0EEF841460746284601F0E9F80146384600F0DDFF21460746504601F0E0F880463846414600F0D3FF00288146044697
:401DC000C24620F0004540F3F180B5F1864F00F3C08000F0B080B5F17C5F00F3C2800025A84624F47F6424F00F042046174901F0BFF851468146204600F0B0FF0146384693
:401E000000F0ACFF124901F0B3F823E071C41C00D6B35D00C081000042F1533E55326C3E05A38B3EABAAAA3EB76DDB3E9A99193F000040400038763FA0C39D364F38763F4B
:401E4000B8810000B0810000000080BF0072313F1872313F83490746204601F089F80146384600F07DFF07464846394600F078FF4946044600F072FF0146384600F06EFF9E
:401E800021468146204601F073F80746764901F06FF8764900F062FF394601F069F8744900F05EFF394601F063F8724900F056FF394601F05DF8704900F052FF394601F0E9
:401EC00057F80146204600F049FF07462046394601F04EF84FF080418246384600F03EFF0146504601F0F8F849460746204601F03FF8494600F034FF0146384600F02EFF16
:401F0000214600F02BFF01464FF07E5000F026FF4119B1F5000FC0F29F80304601F028F865E502F00102C2F1020769E50022019218E60021FFE55149384600F011FF4146B0
:401F40008246484600F00AFF0146504601F0CCF938B130464A4901F00BF8494901F008F845E5ED157E3D4FF400022A412244C2F3C7514448C2F31603C1F196057F3940FAB3
:401F800001F143F400032B4122EA0101404683EAE47800F0E3FE82463846514600F0E0FE08EBD4784FEAC85504461AE7364B9D420ADC7FF410AF414600F0D0FE014638464E
:401FC00001F07EF90028CCD03046304900F0D0FF2E4900F0CDFF0AE501234FF400120193C0E54FF07E5100F0B9FE2949804600F0BFFF28498146404600F0BAFF41468246E2
:40200000404600F0B5FF4FF07A518346404600F0AFFF0146204800F0A1FE414600F0A8FF01464FF07C5000F099FE0146584600F09FFF1A4900F09CFF0146504600F08EFE90
:4020400080464846414600F08BFE20F47F6A2AF00F0A4946504684E6414600F05BF901465BE700BF8CBEBF354CBB31330EEADD3555B38A38610B363BABAA2A3E3CAA3833D2
:40208000CAF24971FFFF7F00000016436042A20D00AAB83F70A5EC36ABAAAA3E3BAAB83F20F00042B2F1FF4F70B5034604462DD25AB300283DDBB2F5000F4FEAE0502CD32D
:4020C000002631467F38C3F31603C20743F4000348BF5B0040105B0019244FF080728D189D4202DC5B1BA9181644013C4FEA43034FEA5202F3D113B106F001031E44761099
:4021000006F17C5606EBC05070BD70BD014600F02FFF214600F024FE70BD14F400020FD15B00190202F10102FAD5C2F101021044C6E7014600F012FE014600F0CDFF70BD1D
:4021400001221044BCE700BF10B431F0004408D0114BA1F580129A4208D804205DF8044B704718B902205DF8044B704701F1FF41094B01F5E0019942EFD9B4F5801F01D25D
:402180000320EBE7054B9C4201D00020E6E7B0FA80F04009E2E700BFFFFFDF7F0000F07F00207047F0B5C1F30A5EAEF2FF35132D83B002460B460C464FEAD17607462EDCE7
:4021C000002D48DB3C49294101EA030010432BD049080B4053EA02070CD04FF48023132D24EA010143FA05F444EA01040CBF4FF0004700273149234601EBC606D6E90045F0
:402200003A462046294600F0E9F8CDE90001DDE9000122462B4600F0DFF803B0F0BD332D06DDB5F5806F43D01046194603B0F0BDAEF2134E4FF0FF3121FA0EF10142F3D066
:4022400049080142D6D04FF0804320EA010143FA0EF70F43CEE721F000410143E4D0C3F3130141EA000CCCF1000141EA0C0C13495C0C4FEA1C3C0CF4002C640401EBC601E5
:402280004CEA0403D1E900452046294600F0A6F8CDE90001DDE9000122462B4600F09CF8024621F0004141EAC67310461946BDE700F094F8BAE700BFFFFF0F00C88100001B
:4022C00020F00040704700BF20F00040B0F1FF4FACBF00200120704730F0004001D102207047A0F50003B3F1FE4F01D204207047054B421E9A4201D803207047A0F1FF4025
:40230000B0FA80F040097047FEFF7F00004870470000C07F30F0004238B50346044615D0B2F1FF4F0ED2B2F5000F0D460FD3D20D2A44FE2A2EDC002A1DDD24F0FF4444EA1E
:40234000C25038BD014600F00BFD38BD38BD4FF0984100F00DFE184A0346954207DBC0F3C7520446193AE3E7144800F02BF8134900F0FEFD38BD12F1160F13DA4CF2503203
:4023800095421946F0DD0E4800F01CF80C4900F0EFFD38BD19460A4800F014F8084900F0E7FD38BD193224F0FF4040EAC2504FF04C5100F0DDFD38BDB03CFFFF6042A20D23
:4023C000CAF2497101F0004120F000400843704781F0004102E000BF83F0004330B54FEA41044FEA430594EA050F08BF90EA020F1FBF54EA000C55EA020C7FEA645C7FEA0B
:40240000655C00F0E2804FEA5454D4EB5555B8BF6D420CDD2C4480EA020281EA030382EA000083EA010180EA020281EA0303362D88BF30BD11F0004F4FEA01314FF4801CF6
:402440004CEA113102D0404261EB410113F0004F4FEA03334CEA133302D0524263EB430394EA050F00F0A780A4F10104D5F1200E0DDB02FA0EFC22FA05F2801841F10001C8
:4024800003FA0EF2801843FA05F359410EE0A5F120050EF1200E012A03FA0EFC28BF4CF0020C43FA05F3C01851EBE37101F0004507D54FF0000EDCF1000C7EEB00006EEBE8
:4024C0000101B1F5801F1BD3B1F5001F0CD349085FEA30004FEA3C0C04F101044FEA445212F5800F80F09A80BCF1004F08BF5FEA500C50F1000041EB045141EA050130BD87
:402500005FEA4C0C404141EB010111F4801FA4F10104E9D191F0000F04BF01460020B1FA81F308BF2033A3F10B03B3F120020CDA0C3208DD02F1140CC2F10C0201FA0CF024
:4025400021FA02F10CE002F11402D8BFC2F1200C01FA02F120FA0CFCDCBF41EA0C019040E41AA2BF01EB0451294330BD6FEA04041F3C1CDA0C340EDC04F11404C4F1200276
:4025800020FA04F001FA02F340EA030021FA04F345EA030130BDC4F10C04C4F1200220FA02F001FA04F340EA0300294630BD21FA04F0294630BD94F0000F83F4801306BFCE
:4025C00081F480110134013D4EE77FEA645C18BF7FEA655C29D094EA050F08BF90EA020F05D054EA000C04BF1946104630BD91EA030F1EBF0021002030BD5FEA545C05D13B
:402600004000494128BF41F0004130BD14F580043CBF01F5801130BD01F0004545F0FE4141F470014FF0000030BD7FEA645C1ABF194610467FEA655C1CBF0B46024650EA83
:40264000013406BF52EA033591EA030F41F4002130BD00BF90F0000F04BF0021704730B54FF4806404F132044FF000054FF0000150E700BF90F0000F04BF0021704730B573
:402680004FF4806404F1320410F0004548BF40424FF000013EE700BF42004FEAE2014FEA31014FEA02701FBF12F07F4393F07F4F81F06051704792F0000F14BF93F07F4FE1
:4026C000704730B54FF4607401F0004521F0004120E700BF50EA010208BF704730B54FF000050AE050EA010208BF704730B511F0004502D5404261EB41014FF4806404F122
:4027000032045FEA915C3FF4DCAE4FF003025FEADC0C18BF03325FEADC0C18BF033202EBDC02C2F1200300FA03FC20FA02F001FA03FE40EA0E0021FA02F11444C1E600BF0C
:4027400070B54FF0FF0C4CF4E06C1CEA11541DBF1CEA135594EA0C0F95EA0C0F00F0DEF82C4481EA030621EA4C5123EA4C5350EA013518BF52EA033541F4801143F480132D
:4027800038D0A0FB02CE4FF00005E1FB02E506F00042E0FB03E54FF00006E1FB03569CF0000F18BF4EF0010EA4F1FF04B6F5007F64F5407404D25FEA4E0E6D4146EB060636
:4027C00042EAC62141EA55514FEAC52040EA5E504FEACE2EB4F1FD0C88BFBCF5E06F1ED8BEF1004F08BF5FEA500E50F1000041EB045170BD06F0004646EA010140EA0200EA
:4028000081EA0301B4EB5C04C2BFD4EB0C0541EA045170BD41F480114FF0000E013C00F3AB8014F1360FDEBF002001F0004170BDC4F10004203C35DA0C341BDC04F11404F0
:40284000C4F1200500FA05F320FA04F001FA05F240EA020001F0004221F0004110EBD37021FA04F642EB06015EEA430E08BF20EAD37070BDC4F10C04C4F1200500FA04F3EA
:4028800020FA05F001FA04F240EA020001F0004110EBD37041F100015EEA430E08BF20EAD37070BDC4F1200500FA05F24EEA020E20FA04F301FA05F243EA020321FA04F018
:4028C00001F0004121FA04F220EA020000EBD3705EEA430E08BF20EAD37070BD94F0000F0FD101F00046400041EB010111F4801F08BF013CF7D041EA060195F0000F18BF5D
:40290000704703F00046520043EB030313F4801F08BF013DF7D043EA0603704794EA0C0F0CEA135518BF95EA0C0F0CD050EA410618BF52EA4306D1D181EA030101F000415E
:402940004FF0000070BD50EA410606BF1046194652EA430619D094EA0C0F02D150EA013613D195EA0C0F05D152EA03361CBF104619460AD181EA030101F0004141F0FE4160
:4029800041F470014FF0000070BD41F0FE4141F4780170BD70B54FF0FF0C4CF4E06C1CEA11541DBF1CEA135594EA0C0F95EA0C0F00F0A7F8A4EB050481EA030E52EA0335C0
:4029C0004FEA013100F088804FEA03334FF0805545EA131343EA12634FEA022245EA111545EA10654FEA00260EF000419D4208BF964244F1FD0404F5407402D25B084FEA35
:402A00003202B61A65EB03055B084FEA32024FF480104FF4002CB6EB020E75EB030E22BFB61A754640EA0C005B084FEA3202B6EB020E75EB030E22BFB61A754640EA5C0080
:402A40005B084FEA3202B6EB020E75EB030E22BFB61A754640EA9C005B084FEA3202B6EB020E75EB030E22BFB61A754640EADC0055EA060E18D04FEA051545EA16754FEA4D
:402A800006164FEAC30343EA52734FEAC2025FEA1C1CC0D111F4801F0BD141EA00014FF000004FF0004CB6E711F4801F04BF01430020B4F1FD0C88BFBCF5E06F3FF6AFAE95
:402AC000B5EB030C04BFB6EB020C5FEA500C50F1000041EB045170BD0EF0004E4EEA113114EB5C04C2BFD4EB0C0541EA045170BD41F480114FF0000E013C90E645EA060EF5
:402B00008DE60CEA135594EA0C0F08BF95EA0C0F3FF43BAF94EA0C0F0AD150EA01347FF434AF95EA0C0F7FF425AF104619462CE795EA0C0F06D152EA03353FF4FDAE1046B2
:402B4000194622E750EA410618BF52EA43067FF4C5AE50EA41047FF40DAF52EA43057FF4EBAE12E74FF0FF3C06E000BF4FF0010C02E000BF4FF0010C4DF804CD4FEA410CFF
:402B80007FEA6C5C4FEA430C18BF7FEA6C5C1BD001B050EA410C0CBF52EA430C91EA030F02BF90EA020F0020704710F1000F91EA030F58BF994208BF90422CBFD8176FEAD0
:402BC000E37040F0010070474FEA410C7FEA6C5C02D150EA013C07D14FEA430C7FEA6C5CD6D152EA033CD3D05DF8040B704700BF8446104662468C461946634600E000BF28
:402C000001B5FFF7B7FF002848BF10F1000F01BD4DF808EDFFF7F4FF0CBF012000205DF808FB00BF4DF808EDFFF7EAFF34BF012000205DF808FB00BF4DF808EDFFF7E0FF7C
:402C400094BF012000205DF808FB00BF4DF808EDFFF7CEFF94BF012000205DF808FB00BF4DF808EDFFF7C4FF34BF012000205DF808FB00BF4A0011D212F5001211D20DD5B8
:402C80006FF47873B3EB62520ED44FEAC12343F0004343EA505323FA02F070474FF00000704750EA013002D14FF0FF3070474FF0000070474FEA4102B2F1E04324BFB3F54D
:402CC000001CDCF1FE5C0DD901F0004C4FEAC0024CEA5070B2F1004F40EB830008BF20F00100704711F0804F21D113F13872BCBF01F00040704741F480114FEA5252C2F125
:402D00001802C2F1200C10FA0CF320FA02F018BF40F001004FEAC1234FEAD32303FA0CFC40EA0C0023FA02F34FEA4303CCE77FEA625307D150EA01331EBF4FF0FE4040F4C0
:402D40004000704701F0004040F0FE4040F40000704700BF80F0004002E000BF81F0004142001FBF5FEA410392EA030F7FEA226C7FEA236C6AD04FEA1262D2EB1363C1BF4C
:402D8000D218414048404140B8BF5B42192B88BF704710F0004F40F4000020F07F4018BF404211F0004F41F4000121F07F4118BF494292EA030F3FD0A2F1010241FA03FC78
:402DC00010EB0C00C3F1200301FA03F100F0004302D5494260EB4000B0F5000F13D3B0F1807F06D340084FEA310102F10102FE2A51D2B1F1004F40EBC25008BF20F00100D9
:402E000040EA03007047490040EB000010F4000FA2F10102EDD1B0FA80FCACF1080CB2EB0C0200FA0CF0AABF00EBC25052421843BCBFD0401843704792F0000F81F4000162
:402E400006BF80F400000132013BB5E74FEA41037FEA226C18BF7FEA236C21D092EA030F04D092F0000F08BF0846704790EA010F1CBF0020704712F07F4F04D1400028BF13
:402E800040F00040704712F100723CBF00F50000704700F0004343F0FE4040F4000070477FEA226216BF08467FEA23630146420206BF5FEA412390EA010F40F4800070474F
:402EC0004FF0000304E000BF10F0004348BF40425FEA000C08BF704743F0964301464FF000001CE050EA010208BF70474FF000030AE000BF50EA010208BF704711F000431B
:402F000002D5404261EB41015FEA010C02BF84460146002043F0B64308BFA3F18053A3F50003BCFA8CF2083AA3EBC25310DB01FA02FC634400FA02FCC2F12002BCF1004F00
:402F400020FA02F243EB020008BF20F00100704702F1200201FA02FCC2F1200250EA4C0021FA02F243EB020008BF20EADC7070474FF0FF0C1CEAD0521EBF1CEAD15392EA13
:402F80000C0F93EA0C0F6FD01A4480EA010C400218BF5FEA41211ED04FF0006343EA501043EA5111A0FB01310CF00040B1F5000F3EBF490041EAD3715B0040EA010062F18E
:402FC0007F02FD2A1DD8B3F1004F40EBC25008BF20F00100704790F0000F0CF0004C08BF49024CEA502040EA51207F3AC2BFD2F1FF0340EAC250704740F400004FF00003E3
:40300000013A5DDC12F1190FDCBF00F000407047C2F10002410021FA02F1C2F1200200FA02FC5FEA310040F1000053EA4C0308BF20EADC70704792F0000F00F0004C02BF05
:40304000400010F4000F013AF9D040EA0C0093F0000F01F0004C02BF490011F4000F013BF9D041EA0C018FE70CEAD15392EA0C0F18BF93EA0C0F0AD030F0004C18BF31F0C5
:40308000004CD8D180EA010000F00040704790F0000F17BF90F0004F084691F0000F91F0004F14D092EA0C0F01D142020FD193EA0C0F03D14B0218BF084608D180EA010054
:4030C00000F0004040F0FE4040F40000704740F0FE4040F4400070474FF0FF0C1CEAD0521EBF1CEAD15392EA0C0F93EA0C0F69D0A2EB030280EA010C49024FEA402037D0D9
:403100004FF0805343EA111143EA10130CF000408B4238BF5B0042F17D024FF4000C8B4224BF5B1A40EA0C00B3EB510F24BFA3EB510340EA5C00B3EB910F24BFA3EB91039B
:4031400040EA9C00B3EBD10F24BFA3EBD10340EADC001B0118BF5FEA1C1CE0D1FD2A3FF650AF8B4240EBC25008BF20F0010070470CF0004C4CEA50207F32C2BFD2F1FF03C2
:4031800040EAC250704740F400004FF00003013A37E792F0000F00F0004C02BF400010F4000F013AF9D040EA0C0093F0000F01F0004C02BF490011F4000F013BF9D041EA15
:4031C0000C0195E70CEAD15392EA0C0F08D142027FF47DAF93EA0C0F7FF470AF084676E793EA0C0F04D14B023FF44CAF08466EE730F0004C18BF31F0004CCAD130F00042CC
:403200007FF45CAF31F000437FF43CAF5FE700BF4FF0FF3C06E000BF4FF0010C02E000BF4FF0010C4DF804CD4FEA40024FEA41037FEA226C18BF7FEA236C11D001B052EA4F
:40324000530C18BF90EA010F58BFB2EB030088BFC81738BF6FEAE17018BF40F0010070477FEA226C02D15FEA402C05D17FEA236CE4D15FEA412CE1D05DF8040B704700BF0E
:40328000844608466146FFE70FB5FFF7C9FF002848BF10F1000F0FBD4DF808EDFFF7F4FF0CBF012000205DF808FB00BF4DF808EDFFF7EAFF34BF012000205DF808FB00BF32
:4032C0004DF808EDFFF7E0FF94BF012000205DF808FB00BF4DF808EDFFF7D2FF94BF012000205DF808FB00BF4DF808EDFFF7C8FF34BF012000205DF808FB00BF42000ED204
:40330000B2F1FE4F0BD34FF09E03B3EB126209D44FEA002343F0004323FA02F070474FF00000704712F1610F01D1420202D14FF0FF3070474FF00000704700BF2DE9F041E5
:40334000069C904606460F461D4600F029F808FB01FCA8FB002300FB05C5B21A2B4467EB03038646C4E90023BDE8F0812DE9F843089E1746804689461D4600F067F900FB59
:4033800005F3A0FB074507FB0137B8EB04043D4469EB0505C6E90045BDE8F883704700BF00292DE9F043C0F2A8800026002BC0F29E8081468E4690469C46174604460D4626
:4033C000002B3DD18A4259D9B2FA82F33BB1C3F120029D4020FA02F29F4015439C40390CB5FBF1F01FFA87FE01FB10550EFB00F3220C42EA0545AB4209D9ED1900F1FF3249
:4034000080F00B81AB4240F2088102383D44ED1AB5FBF1F301FB13550EFB03FEA4B244EA0545AE4508D9ED1903F1FF3280F0F780AE4540F2F480023B43EA0043002203E025
:403440008B420FD900221346341C18BF012460424FF0000565EB45015840514000196941BDE8F083B3FA83F2002A40F089808B4202D3804500F2E2800123E5E712B9012331
:40348000B3FBF2F7B7FA87F8B8F1000F3BD1ED1B4FEA174C1FFA87FE0122B5FBFCF00CFB10550EFB00F3210C41EA0545AB4207D9ED1900F1FF3102D2AB4200F2C38008463E
:4034C000ED1AB5FBFCF30CFB13550EFB03FEA4B244EA0545AE4507D9ED1903F1FF3102D2AE4500F2AD800B4643EA0043ACE752426FEA060663EB43035BE7404261EB4101C9
:403500004FF0FF3652E707FA08F7C8F1200225FA02F34FEA174CB3FBFCF11FFA87FE0CFB113324FA02F205FA08F50EFB01F92A43100C40EA0343994504FA08F407D9DB1919
:4035400001F1FF3078D2994576D902393B44C9EB0303B3FBFCF00CFB10330EFB00F592B242EA03439D4207D9DB1900F1FF325FD29D425DD902383B445D1B40EA01428CE77B
:40358000C2F1200328FA03F10CFA02FC41EA0C0C4FEA1C402EFA03F1B1FBF0F51FFA8CF700FB151129FA03F30EFA02FE07FB05F943EA0E0E4FEA1E4343EA0141894508FA96
:4035C00002F808D911EB0C0105F1FF3332D2894530D9023D6144C9EB0101B1FBF0F300FB131107FB03F71FFA8EFE4EEA014E774508D91EEB0C0E03F1FF3117D2774515D9FD
:40360000023BE64443EA0543A3FB0889C7EB0E0ECE4509D305D0002216E71046F7E613460AE794404445F6D2013BF4E70B46E9E71046A1E71D46CEE7014688E7134603E705
:40364000023B51E702383D443AE700BF2DE9F043002B44D18A42154604464FD9B2FA82F70E464FB1C7F12003B94020FA03F602FA07F50E4300FA07F42F0CB6FBF7F01FFA8E
:4036800085FE07FB10620EFB00F1260C46EA0243994209D95B1900F1FF3280F0EE80994240F2EB8002382B44591AB1FBF7F307FB13110EFB03FEA4B244EA01418E4508D96D
:4036C000491903F1FF3280F0DA808E4540F2D780023B43EA004000263146BDE8F0838B4247D8B3FA83F6002E48D18B4202D3824200F2CF8001203146BDE8F08312B901251D
:40370000B5FBF2F5B5FA85FCBCF1000F78D1491B2F0C1FFA85FE0126B1FBF7F007FB10110EFB00F2230C43EA01418A4207D9491900F1FF3302D28A4200F2BC801846891A0C
:40374000B1FBF7F307FB13110EFB03FEA4B244EA0142964508D9521903F1FF3180F09180964540F28E80023B43EA00403146BDE8F083002630463146BDE8F083C6F1200496
:4037800022FA04F5B3402B4321FA04F74FEA1348B7FBF8FC1FFA83F908FB1C7720FA04FE01FA06F509FB0CF44EEA05054FEA154E4EEA0747BC4202FA06F204D9FF180CF1BB
:4037C000FF3168D38C463F1BB7FBF8F408FB147709FB04F9ADB245EA0741894504D9C91804F1FF355DD32C4644EA0C44A4FB0223C9EB0101994249D345D0204600266BE7F6
:40380000CCF1200405FA0CF521FA04F32A0CB3FBF2F61FFA85FE02FB163820FA04F701FA0CF10EFB06F90F433C0C44EA0843994500FA0CF407D95B1906F1FF3138D299457F
:4038400036D9023E2B44C9EB0303B3FBF2F002FB10330EFB00F1BFB247EA0343994207D95B1900F1FF3721D299421FD902382B441746591A40EA06464EE7104614E7134634
:4038800027E70B4670E7B0409042B6D2601E002622E7304620E7BC4294D9ACF1020C1F4491E789459FD9023C19449DE73846DFE70E46C8E70238294441E700BF014B1868E7
:4038C000704700BF5885FF1F70B50F4E0F4D761BB61018BF002405D0013455F8043B9847A642F9D10A4E0B4D04F03AFD761BB61018BF002406D0013455F8043B9847A64275
:40390000F9D170BD70BD00BF6C8300006C830000788300006C830000844641EA000313F0030349D1403A23D30B6803604B6843608B688360CB68C3600B6903614B694361C9
:403940008B698361CB69C3610B6A03624B6A43628B6A8362CB6AC3620B6B03634B6B43638B6B8363CB6BC36340304031403ADBD230320BD30B6803604B6843608B688360F5
:40398000CB68C36010301031103AF3D20C3205D351F8043B40F8043B043AF9D2043208D0D2071CBF11F8013B00F8013B01D30B8803806046704700BF082A13D38B07B1D097
:4039C00010F00303AED0C3F10403D21ADB071CBF11F8013B00F8013BA4D331F8023B20F8023B9FE7043AD9D3013A11F8013B00F8013BF9D20B7803704B7843708B788370E3
:403A00006046704770B4840746D0541E002A41D0CDB2034602E0621EE4B3144603F8015B9A07F8D1032C2ED9CDB245EA05250F2C45EA054519D9264603F11002103E0F2E2A
:403A400042F8105C42F80C5C42F8085C42F8045C02F11002F2D8A4F1100222F00F0204F00F041032032C13440DD91E462246043A032A46F8045BFAD8221F22F00302043244
:403A8000134404F003042CB1C9B21C4403F8011BA342FBD170BC704714460346C2E700BF0FB410B5074B82B004AC54F8042B186823468168019400F06DF802B0BDE81040AC
:403AC00004B070475885FF1FF0B5044689B008460D4600F031F8A36802219A89DFF844E000F1010C012704AE0291910404950590CDF80CC0CDF818E00797019606D4596EE0
:403B000042F4005221F400519A8159662046194601AA02F07FFD002814BF4FF0FF300A2009B0F0BDE0810000024B01461868FFF7CBBF00BF5885FF1F20F0030110F0030020
:403B4000C0F1000051F8043B00F1040C4FEACC0C6FF000021CBF22FA0CF213434FF0010C4CEA0C2C4CEA0C4CA3EB0C0222EA030212EACC1204BF51F8043B0430F4D0C2F189
:403B8000000102EA0102B2FA82F2C2F11F0200EBD20070472DE9F04FBFB01C4689460892074602F0F9FE03680C9418461593FFF7C3FF16901FB1BB6B002B00F0F480B9F843
:403BC0000C2093B29D040AD4D9F8641042F4005321F40051A9F80C30C9F864109BB2180740F1AB80D9F81020002A00F0A68003F01A030A2B00F0AD8000231A460DF1B80CDF
:403C00006446B846119314931793099323932293CDF884C012921392089D2B78002B00F0C680252B02D1C2E0252B03D015F8013F002BF9D1089BEE1A7EB1229B239A013333
:403C400008993244072B84E842002392229300F393800834099B334409932B78002B00F0938000234FF0FF3A1A465646691C6D788DF867300A9306934B1CA5F12001582927
:403C800000F2C083DFE811F05602BE03BE039902BE03BE03BE03BE03BE03BE03A0026402BE03F201F002BE036E02750275027502750275027502750275027502BE03BE037C
:403CC000BE03BE03BE03BE03BE03BE03BE03BE0366032703BE032703BE03BE03BE03BE035F03BE03BE030A03BE03BE03BE03BE03BE03A803BE03BE037F03BE03BE03BE0392
:403D0000BE03BE03BE03BE03BE03BE03BE039403AE02270327032703CC02AE02BE03BE03D302BE03DD02F90184025D02BE030B02BE039500BE03BE0330023846494601F04D
:403D40008BF9A0B9B9F80C3003F01A030A2B7FF453AFB9F90E30002BFFF64EAF38464946089A234601F03AF93FB0BDE8F08F4FF0FF303FB0BDE8F08F4046494621AA03F00F
:403D800035FF40B92EAC65E7239B23B14046494621AA03F02BFFB9F80C305A06E7D409983FB0BDE8F08F384602F0EEFA07E7089D53E70893069BB2469E0640F117830C9FF2
:403DC000073727F0070303F10802D3E900670C92012300229446CDF83CA08DF86720BAF1000F03DB069A22F08002069256EA070240F02A83BAF1000F00F02884012B00F0DC
:403E00002B83022B00F075842EA9F20842EA4772F80806F0070307461646303356EA070201F8013DF1D1069A0E91D00700F113852EAB5B1A0B930B9A53469245B8BF13464A
:403E4000079300231093BCF1000F02D0079B01330793069B13F002030D9302D0079B02330793069B13F0840640F0EB820A9B079AC2EB030ABAF1000F40F3E382BAF1100F71
:403E80002399229AB44FC8BF4FF0100B07DC1EE0AAF1100ABAF1100F04F1080417DD01321031072A2391229284E88008F0DD4046494621AA03F09AFE00287FF46CAFAAF1C7
:403EC000100ABAF1100F2EAC2399229AE7DC01320AEB010B072ACDF88CB0229284E8800400F3A4829DF867C00834BCF1000F0FD0229B0BF1010B01330DF167010122072B5F
:403F0000CDF88CB0229384E8060000F3BD8308340D9B73B1229B0BF1020B01331AA90222072BCDF88CB0229384E8060000F3B8830834802E00F0FB820F9B0B9AC2EB030A55
:403F4000BAF1000F32DDBAF1100F229A834F22DD10265B4606E0AAF1100ABAF1100F04F1080417DD01321033072A2393229227606660F0DD4046494621AA03F037FE002895
:403F80007FF409AFAAF1100ABAF1100F2EAC239B229AE7DC9B460132D344072ACDF88CB0229284E8800400F363830834069BDB0500F16682229B0B9901330E9A8B44072B92
:403FC000CDF88CB022606160229300F380830834069B59073AD50A9B079A9D1A002D35DD102D229B5C4F1EDD10265A4604E0103D102D04F1080415DD01331032072B239216
:40400000229327606660F2DD4046494621AA03F0EDFD00287FF4BFAE103D102D2EAC239A229BE9DC93460133AB44072BCDF88CB022932760656009DD4046494621AA03F05E
:40404000D5FD00287FF4A7AEDDF88CB0099B079A0A998A42ACBF9B185B180993BBF1000F40F0EA82002322932EACD5E51946069840F0040006901D78FEE50893069BB24656
:4040800013F0200300F015810C9F073727F0070303F10802D3E900670C92002399E60C9A089313684FF0000B0E938DF867B0171D002B00F07E86002E0E98C0F23086594678
:4040C000324602F063FF002800F0AF860E9BCDF83CB0C31A0B930C9723EAE3730793CDF840B09DF867C0AEE608931D4BB2461493069B8DF86720990640F14F810C9F073755
:4041000027F0070303F108020C92D3E90067069BDB0740F1078356EA070300F00383069A302342F002028DF868308DF86950069202234EE6002A40F031851D7819462022E6
:404140009AE5069941F0200106911D78194693E51D7819462B228FE538820000E481000018820000069941F0800106911D78194682E5A5F13000002113F8015B01EB81015F
:4041800000EB4101A5F130000928F5D90A9174E50C9A0699089330238DF86830B44BB2467825166841F002010432149306910C9200278DF8695002230BE6069941F0010124
:4041C00006911D78194657E50C9D296808460A912946002801F10401C0F26F850C911D78194649E50893069BB24699068DF8672040F1BC800C9F073727F00707D7E90023A5
:4042000007F1080116461F460C91002A73F10003C0F2E6839DF867C0CDF83CA00123DEE5069941F0400106911D78194624E51D7806996C2D00F03A8541F0100106911946D6
:404240001AE50893069B8DF867209A0640F175840C9A134604330C93099B1168DF171A463B46C1E90023D7E41D78591C2A2D00F09E86A5F1300009280B464FF000063FF6A5
:40428000FCAC13F8015B06EB860600EB4606A5F130000928F5D946EAE676EEE40893069BB24643F010030693069B13F020037FF4EBAE069A12F0100240F08182069B13F0A7
:4042C000400300F07C820C9913460A4604320E8800270C927DE50893069B0C9F1B07B2468DF86720B34607F1070740F10B8427F0070303F108020C921A685B681292139334
:4043000013991298FDF720FF01281399129840F0758300220023FEF785FC002840F06B859DF867C0534A544B069E472DD8BF1A460321002026F0800607910F9006960E9210
:404340000B9110907FE5069941F0080106911D78194691E40893069BB24643F010030693069B8DF8672099063FF544AF069BDA0640F1D3830C9A13461E680433F7170C93CD
:4043800032463B4641E708933C4BB2461493069B8DF8672099063FF5B1AE069BDA0640F1F1830C9A00271346043316680C93AEE60C980893026800238DF89020024601219D
:4043C0009C4604328DF867300F93109324AB07910C920B910E933CE50893069BB24643F010030693069B9E063FF5E9AC069BD80640F1BA830C9A134604321E6800270123CD
:404400000C92E6E408938DF86720002D3FF4BCAC002301229C468DF867300F93109324AB07928DF890500B920E9312E54046494621AA03F0DBFB00287FF4ADAC9DF867C0C1
:404440002EACDDF88CB050E5012B7FF4DAAC002F08BF0A2E80F0E4810DF1F80B30360BF8416D2EABCBEB03030B93CDF838B0E2E418820000F8810000F48100000482000028
:40448000652D40F38A801298139900220023FEF7BFFB002800F04981229BBA4901330BF1010B0122072BCDF88CB0229384E8060000F3858308341B9B119A934203DB069B9C
:4044C000DF077FF585AD229B16990133159A8B44072BCDF88CB022606160229300F3F4830834119B5D1E002D7FF772AD102D229BA54F40F3E28010265A4604E00834103D92
:40450000102D40F3D98001331032072B2392229327606660F2DD4046494621AA03F066FB00287FF438AC2EAC239A229BE7E70A9B079A9E1A002E7FF7FFAC102E229A924F87
:404540001FDD4FF0100A5B4604E0103E102E04F1080415DD01321033072A2393229284E88004F2DD4046494621AA03F03FFB00287FF411AC103E102E2EAC239B229AE9DC08
:404580009B460132B344072ACDF88CB022922760666000F318820834CEE4119B229D012B0BF1010605F1010540F3C7810E9A0123072D239622602295636000F3D7810834F5
:4045C000169A0135159B1644072D239622952360626000F3D78108340023129813990022FEF716FB119B002840F0F1800E9A013B013501321E44072D2260229523966360AD
:4046000000F3D5810834179A013506EB020B1DAB072DCDF88CB02295626023607FF7D7AC4046494621AA03F0E1FA00287FF4B3AB2EACDDF88CB0CBE44046494621AA03F00A
:40464000D5FA00283FF40EADFFF7A5BB002B4AD1069BDA0747D50DF1F80B30230BF8413D2EABCBEB03030B93CDF838B0FFF7E3BB4046494621AA03F0B9FA00287FF48BAB7B
:404680002EACDDF88CB091E44046494621AA03F0ADFA00287FF47FAB2EACDDF88CB037E44046494621AA03F0A1FA00287FF473AB2EACDDF88CB03CE493460133AB44072BF5
:4046C000CDF88CB02293276065607FF780AC4046494621AA03F08AFA00287FF45CABDDF88CB02EAC74E42EABCDF82CA00E93FFF7A2BB14980DF1B80B330943EA07733909EA
:4047000006F00F020F461E46835C0BF8013D56EA0703F1D15A462EAB9B1ACDF838B00B93FFF789BB0223FFF754BB1B9D002D40F35282119A109913468A42A8BF0B461D4630
:404740000E99002D01EB020A0CDD0A46229BAB440133072BCDF88CB084E82400229300F305830834109B002DA8BF5B1B002B1D4640F38B80102D229B034F40F31482102659
:404780005A4608E034820000E48100000834103D102D40F3078201331032072B2392229327606660F2DD4046494621AA03F01EFA00287FF4F0AA2EAC239A229BE7E70C99BF
:4047C00000270A4604320E680C92FFF702BB03F1FF3ABAF1000F7FF716AFBAF1100F864FC8BF4FF0100B07DCD8E00834AAF1100ABAF1100F40F3D28001351036072D23965F
:40480000229584E88008F0DD4046494621AA03F0EDF900287FF4BFAA2EAC239E229DE5E70DF1B80BCDF81CC0304639460A22002303F03EFC3032304639460BF8012D00239F
:404840000A2203F035FC06460F4656EA0703EBD1DDF81CC05EE7302B00F042820E9B2EA8013B1A460E93821A30230B9201F8013CFFF7E1BA4046494621AA03F0B7F9002882
:404880007FF489AADDF88CB02EAC0E9A10991B9B0A441646119A934240DB069AD5073DD4119AC6EB0A05D31A9D42A8BF1D46002D2F460BDD229AAB440132072ACDF88CB0F3
:4048C00084E8C000229200F387820834002FB4BF1D46DD1B002D7FF77BAB102D229B464F7FF7EBAE10265A4604E00834103D102D7FF7E2AE01331032072B2392229327601D
:404900006660F2DD4046494621AA03F06FF900287FF441AA2EAC239A229BE7E7229A1698013215998344072ACDF88CB021606060229200F331820834B2E7069BD8073FF597
:4049400035AE0E9A0123072D23962260229563607FF758AE4046494621AA03F047F900287FF419AA2EAC239E229D4CE64046494621AA03F03BF900287FF40DAA2EAC239E32
:40498000229D1DE64046494621AA03F02FF900287FF401AA2EAC239E229D1DE601355644072D2396229584E880047FF72BAE4046494621AA03F01AF900287FF4ECA9239E0D
:4049C000229D2EAC1FE64046494621AA03F00EF900287FF4E0A92EACDDF88CB0FFF7ACBA4FF02D0C764267EB47078DF867C0CDF83CA00123FFF7F3B9E4810000FDF7A4FBF9
:404A0000002800F02D8125F02003BAF1FF3F0B9300F07882472B05D1BAF1000F14BFD3464FF0010B069B43F480730F93139BB3F1000A129B0793B7BF5346002303F1004A4E
:404A40002D23662D0D9300F07381462D00F070810B9B0220452B14BF5F460BF101071BA98DE8810002911CA81FA90390079A53460491404600F0FCFB672D0E9002D0472DA7
:404A800040F06681069BDB0740F159820E9BDE190798514600220023FEF7BAF8002840F0C2811F9B9E4206D930215A1C1F9219701F9B9E42F9D80E9A9B1A11930B9B472BF5
:404AC0001B9B00F0A981652D40F3BB81662D109300F02882119B109A934200F31682069BD90700F13C8222EAE2730B920D9A002A40F0878107930F9B9DF867C006930F92EE
:404B0000FFF7A1B927F007073B6812937B68139307F108030C93FFF7F3BB069B0C9A13F0400F13463FF428ACB2F900600433F7170C9332463B46FFF768BB069BDB060BD48E
:404B4000069B5F0608D50C9A136804320C92BDF824201A80FFF760B80C9A136804320C92099A1A60FFF758B8069B0C9A13F0400F13463FF441AC16880432002701230C92D5
:404B8000FFF727B9069B0C9A13F0400F13467AD00433168800270C93FFF7B9BA19461D78FFF76AB893460133AB44072BCDF88CB02293276065603FF75DAE083465E6404655
:404BC000494621AA03F012F800287FF4E4A82EACDDF88CB06FE4229BB04901330BF1010B0122072BCDF88CB0229384E8060050DC08342DB9119B1BB9069BDE077FF5E8A931
:404C0000229B1699013315980BEB0102072B239284E80300229300F3688108346D42002D6FDD102D9E4FC8BF102605DCAAE00834103D102D40F3A68001331032072B239215
:404C4000229327606660F2DD4046494621AA02F0CDFF00287FF49FA82EAC239A229BE7E7904A914B069E472DD8BF1A46032126F080060F900791069610900E920B919DF8F8
:404C800067C0FFF7E0B80433166800270C93FFF73EBA4046494621AA02F0A8FF00287FF47AA82EAC1B9DDDF88CB0A2E741F0200106915D78591CFEF7DFBF0A980C914042ED
:404CC0000A901946FFF7D3B94046494621AA02F08DFF00287FF45FA82EACDDF88CB000E40E9A2EAB9B1A0B93FFF7A5B84046494621AA02F07BFF00287FF44DA8239A229BED
:404D00002EAC1198013302EB000B0E9A072BCDF88CB02293226060607FF759A9D7E4CDF83CB0FEF709FF0C970B900346FFF7D4B903201BA98DE8010802911CA81FA90390F0
:404D4000079A53460491404600F092FA5F460E900E9BDE190B9B462B7FF49AAE0E9B1B78302B00F0EE801B9F3E4491E64046494621AA02F03BFF00287FF40DA82EACDDF8FA
:404D80008CB0EFE401332A44072B2392229327606560ABDC0834B4E74046494621AA02F025FF00287EF4F7AF2EAC1B9BDDF88CB076E53346062E28BF06230B9323EAE3730C
:404DC000DDF838C00793394B0C97CDF83CC0CDF840C00E93FFF737B84046494621AA02F005FF00287EF4D7AF1B9B119ADDF88CB0D31A2EAC6AE52D239C468DF86730FFF757
:404E000091BA07930F9B4FF02D0C069300238DF867C00F93FFF71AB8DF1C11DB9B450FDB1093672556E6334645E626EAE6730F900C9710909DF867C007930B96FFF703B8E6
:404E4000023D013B002B1B93BABF5B422D222B22092B8DF874508DF8752040F386800DF183000146124A82FB0326DA17C2EBA60606EB8602A3EB42023032092E334601F8F2
:404E8000012DEFDC0A463033DEB202F8016D904240F2A0800DF176020B460DE034820000E481000000820000FC8100002C8200006766666613F8016B834202F8016BF9D1A9
:404EC00021AB5B1A0DF1760213441DAA9B1A119A1793012A13440B9357DD0B9B002201330B93109223EAE37300E64046494621AA02F07CFE00287EF44EAF2EAC1B9D239AC8
:404F0000229B8BE64FF0060B8CE5109B002BD8BFC3F10206119BC8BF0126F3180B9323EAE373E3E5002B39DDBBF1000F25D1069BDE0722D4109A22EAE2730B92D6E51F9BA0
:404F4000B9E50798514600220023FDF761FE00287FF409AFC7F101071B973E4498E5109B01330B9323EAE373C0E5303330228DF877308DF876201EABA7E7109B0BF101067B
:404F800033440B9323EAE373B0E5069B13F00103A3D110930B9B23EAE373A7E5BBF1000F12D1069BD8070FD401230B939EE50C9D28462E680430002E5D780C90BEF65CAE0C
:404FC0004FF0FF36FEF758BE0BF102030B9323EAE3738BE50DF1760377E700BF2DE9F04588464F6EADF26C4D1997D8F81C70B1F80CE0B1F80EA00797D8F824701AAC4FF4FB
:4050000080652EF0020E002669460094049402950595ADF80CE0ADF80EA0099706960546FEF7B8FD041E07DB2846694601F018F9B04218BF4FF0FF34BDF80C305B0605D58C
:40504000B8F80C3043F04003A8F80C3020460DF26C4DBDE8F08500BF38B52F4B054618680C4610B1836B002B36D0A28993B218070CD52069A8B113F001021ED06369002263
:405080005B42A361A260F0B1002038BDD9063AD5580724D4206942F00803A3819BB20028E9D103F42072B2F5007FE4D02846214601F076FCA3892069DDE7990758BF6269A3
:4050C000A2600028E0D1A3891A06DED543F04003A3814FF0FF3038BD01F056F9C5E7216B49B104F14003994203D0284601F0BAF9A28900232363206922F02402002392B273
:4051000084E80900C7E742F0400209232B604FF0FF30A28138BD00BF5885FF1F024B13B1024800F005B87047000000009D630000014600200246034602F078BD2DE9F04FAE
:4051400003690F6983B09F4200F38B80013F01F1140600F1140A56F827305AF827200133B2FBF3F8BB00009306EB030953440193B8F1000F3DD000231C46B446D6461A469E
:405180005CF804BBDEF800501FFA8BF34FEA1B4B03FB08220BFB08F303EB124392B2A41A1FFA83FBAAB22244CBEB154404EB224492B242EA0442E1454EF8042B4FEA244463
:4051C0004FEA1342DCD2009B5AF803308BB9019C231F9A450CD254F8043C4BB9A4F1080302E01A68043B1AB99A4507F1FF37F8D30761044602F090F900282EDB00235546D9
:40520000194608F1010856F8042B2B6890B2081A120C99B2C2EB1343421803EB224392B242EA0342B14545F8042B4FEA2341EAD25AF827200AEB87037AB91A1F92450BD2D8
:4052400053F8042C42B9083B02E01A68043B1AB99A4507F1FF37F8D32761404603B0BDE8F08F002003B0BDE8F08F00BF000000002DE9F04F016C99B00446CDE90223259D9A
:4052800041B1426C012393408B604A6001F058FF00232364DDE90223002B994636DB00232B60A54B1A4609EA0303934217D0DDE902670022002330463946FDF7A9FC80464F
:4052C00000282BD0249A01231360269B002B00F0CB809A481860013819B0BDE8F08F42F20F73249A1360029B002B00F0A6809448269B002BF0D0C378002B00F0B78000F1C4
:405300000803269A136019B0BDE8F08F039A012322F000492B60CDF80C90C2E717AA16AB8DE80C00204632463B4602F08BF95FEA1955834640F08A80DDF85880179D6FF43B
:40534000826345449D42C0F295827E4A05F21243521B09FA02F9029A22FA03F049EA0000FDF778F90123013DA1F1F87112930022754BFDF731F86AA3D3E90023FDF7E0F99B
:4053800069A3D3E90023FDF729F8064628460F46FDF770F966A3D3E90023FDF7D1F902460B4630463946FDF719F806460F4602F057FE39460590002230460023FDF732FC6F
:4053C000002840F0A481059B162B00F29D81DDE9022305985D4901EBC001D1E90001FDF73FFC002800F05082059B013B059300230C93C5EB0805B5F1010A00F19F810023B8
:405400000693059B002BC0F290819A440B9300230993229B092B2BD8052B40F37786043B22930025229B023B032B00F25586DFE813F0CF03C103B0026A06414B444AC9F350
:405440001300002814BF1846104651E7C7F3130343F07F51CDF848803046A5F2FF3541F44011DDF8588082E73A4835E7C31C48E7002161642046229101F03AFE4FF0FF33B0
:40548000229A07930D9301230890239220640A93179B002BC0F2D080059A0E2A00F3CC802A4B03EBC203D3E90089239B002BC0F29283DDE9026742464B4630463946FDF721
:4054C00069FA02F0CDFD8246FDF7D4F842464B46FDF736F902460B4630463946FCF77CFF079E089F0AF13005012E3D7002460B4607F1010562D00022174BFDF721F90022F8
:40550000002306460F46FDF783FB002840F08180CDF808B0DDF820A0DDF81CB006942AE061436F63A787D23FB3C8608B288AC63FFB799F501344D33F0000F07F35820000C1
:40554000548200000EFCFFFF0000F83F708200004882000034820000000024400022C84BFDF7EEF80022002306460F46FDF750FB002840F0E08342464B4630463946FDF74F
:4055800009FA02F06DFD0446FDF774F842464B46FDF7D6F802460B4630463946FCF71CFF04F1300605F8016BCAEB0506B34502460B46D3D1A246DDF808B0069C1046194616
:4055C000FCF70CFF06460F464046494632463B46FDF728FB48B94046494632463B46FDF717FBB0B11AF0010F13D015F8018C6B1E089904E08B4200F0458413F8018DB8F104
:40560000390F03F101051A46F4D008F10103DBB213702046594601F093FD0022059B2A70249A01331360269B002B00F04A8308981D6019B0BDE8F08F0A9A002A00F084803B
:40564000229A012A40F30983079B5F1E099BBB42C0F2AF83DF1B079B002BC0F2A584069D079B069A20461A44012106929A4401F001FE064665B1BAF1000F09DDAA45534683
:40568000A8BF2B46069AED1AD21A0692C3EB0A0A099B002B1ADD0A9B002B00F08383002F10DD31463A46204601F08EFE06465A463146204601F0E8FD80465946204601F048
:4056C0003FFDC346099BDA1B40F0A7822046012101F0D0FD0B9B8046002B39DD01461A46204601F071FE229B8046012B40F39B824FF00009D8F8103008EB8303186901F0D1
:405700006BFDC0F120002DE001230C9371E60598FCF7B0FF32463B46FDF77AFA00287FF452AE059B013B05934DE6069A059BD21A5B420993002306920B936AE6CAF100035B
:4057400006934FF0000A5CE6099F069D0A9E91E7229B012B40F3B8824FF000090B9B002BC8D10120504410F01F0000F08180C0F12003042B40F3C184C0F11C00069B05449B
:40578000034406938244069B002B05DD59461A46204601F069FE8346BAF1000F05DD41465246204601F060FE80460C9B002B40F06D82079B002B40F39B820A9B002B71D1B9
:4057C000DDF82090079F4D4604E05946204601F0C1FC834658464146FFF7B0FC303005F8010BC9EB0503BB424FF00A024FF00003EBDB089B079A8446012AACBF9B180133C4
:405800001D464FF0000A594601222046CDF808C001F02AFE4146834601F07EFE0028DDF808C040F3FC8215F8012C6B1E089904E08B4200F0798213F8012D392A03F1010525
:40584000F6D001321A704146204601F079FC002E3FF4DFAEBAF1000F05D0B24503D05146204601F06DFC3146204601F069FCD0E61C2083E7034B029A5B1B02FA03F06FE582
:4058800000002440EEFBFFFF0C90B2E53146002320460A2201F05EFC0D9B0646002B40F315840793002D05DD31462A46204601F0DBFD0646B9F1000F40F0EE82B146089A0B
:4058C000079B1746013BD3180993029B03F001030A9341465846FFF731FC31460546584601F01AFE4A4682464146204601F038FEC268034605F1300C002A40F0BD811946FC
:405900005846CDF81CC0069301F006FE069B02901946204601F014FC029ADDF81CC02AB9229B1BB90A9B002B00F0B083BAF1000FC0F2578205D1229B1BB90A9B002B00F081
:405940005082002A00F3BC82099B07F1010A9F4287F800C0554600F0BF8259460A220023204601F0F7FB4E458346314620464FF00A024FF0000300F0798101F0EBFB49461A
:4059800006460A222046002301F0E4FB574681469FE701230A93239B002B40F319821F461E460D9307930021172F61640AD9012204235B0003F114008742114602F10102DF
:4059C000F7D26164204601F093FB0E2E089020643FF65EAD002D3FF45BADDDE902230599CDE90E23002940F32682BA4B01F00F020D1103EBC203E906D3E9006740F1E18143
:405A0000DDE90E01B44B05F00F05D3E90823FCF7C1FFCDE902014FF003088DB130463946DFF8B492EA0705D5D9E90023FCF788FE08F101086D1009F10809F3D106460F4684
:405A4000DDE9020132463B46FCF7A4FFCDE902010C9B43B1DDE902010022A04BFDF7E2F8002840F0B5824046FCF704FEDDE90223FCF766FE9A4B0022FCF7B0FC079B0646F6
:405A8000A1F15077002B00F06881059BDDF81CC013930A9B002B00F026828E4B002003EBCC0353E902238F49CDF850C0FCF772FF32463B46FCF790FCDDE90267CDE9100194
:405AC0003946304602F0CCFA0546FCF7D3FD02460B4630463946FCF77FFCDDE9102330355FFA85F8089D064685F800800F460135FDF798F8002840F0B98232463B46002012
:405B00007649FCF769FC02460B46DDE91001FDF7A7F8002840F0B382DDF850C0BCF1010F40F33A81089BCDF850A0CDF808B003EB0C09DDE910ABA0460FE032463B460020E7
:405B40006649FCF749FC52465B46FDF76BF8002840F090824D4500F01A81504659460022614BFCF7EDFD00225F4B82468B4630463946FCF7E5FD0F46064602F071FA0446D0
:405B8000FCF778FD02460B4630463946FCF724FC3034E4B205F8014B52465B4606460F46FDF740F80028C8D0139BDDF808B0444605932EE500230A93239B059A13440D934F
:405BC0000133002B079340F30A81079E3746EAE600230A93DFE6079B002B3FF76AAC40F0668240460022414B4946FCF7A9FDDDE90223FDF72BF8DDF81C804646002800F0D3
:405C00008B80239B089DDB4305934146204601F097FA002E7FF427AEFBE45946204601F0D3FB834652E5029B002B7FF461AD039BC3F31303002B7FF48FAD039B23F0004733
:405C40003F0D3F05002F00F01E82069B0AF1010A013306934FF0010980E5129A002A00F0A98103F23343099F069DFAE401F072FA5746064681462CE601462046CDF808C0D6
:405C800001F05EFA0122DDF808C04FE65846414601F042FC0028BFF68CAD059F5946002320460A22013F059701F054FA0A9B8346002B7FF4EBAD0D9B002B40F3FC81079368
:405CC0007EE50898FFF708BB029B002B7FF444ADADE700BF70820000388300000000F03F00001C400000E03F0000244000001440229B022B7FF761AD079B002B81D1414646
:405D00000522204601F026FA80465846414601F003FC00287FF775AF059A08993123013205920B704D1C70E7059A312301320592089A137087E5DDF808B0069C69E440463F
:405D4000FCF798FCDDE90223FCF7FAFC0022BE4BFCF744FB0646A1F15077DDE902010022BA4BFCF739FB32463B46CDE90201FCF777FF8046002840F0B280DDE90201324603
:405D800007F10043FCF74EFF30B1464639E74446DDF850A0DDF808B0DDE90E23CDE90223FFF776BB5946099A204601F00DFB83468CE4099B0B9AFB1A1A4409970B9200270C
:405DC00049E4DDE90E234FF00208CDE9022324E6012623960D96079600216164F2E51E46FAE7002A15DD594601222046CDF808C001F03AFB4146834601F08EFB0028DDF871
:405E000008C040F34D81BCF1390F00F009810CF1010CB24687F800C07D1C4E4613E504D11CF0010F01D0FEE4154615F8013C6A1E302BF9D007E5059B5D42002D00F0C18046
:405E4000DDE90E01824B05F00F0203EBC203D3E90023FCF775FC2D11CDE9020100F030817C4E4FF00208EB0705D5D6E90023FCF767FC08F101086D1006F10806F3D1CDE9D7
:405E80000201E5E5059A302301320592089A137031231370FFF7BDBB7168204601F028F90546336906F10C019A1C92000C30FDF733FD20462946012201F0D6FA8146FEE4A9
:405EC000BCF1390F00F0AC800CF1010CB24687F800C07D1C4E46B6E4B2464E4693E44FF00008464618E75A490CF1FF3301EBC3013246D1E9000114933B46CDF854C0FCF70B
:405F00001FFCDDE90267CDE910013946304602F0A7F80546FCF7AEFB02460B4630463946FCF75AFADDF854C0089A3035BCF1010F157006460F4602F1010523D0089BCDF8E7
:405F400008A063445E469A46AB460022424BFCF7F7FB8946804602F083F80746FCF78AFB303702460B4640464946FCF735FA0BF8017BD345E9D1B3460F460646149BDDF85C
:405F800008A01D440022354BDDE91001FCF726FA32463B46FCF746FE002848D0139B059315F8018CFFF723BB069B079A9D1A0023FFF757BB169B099FC3F13603069DFFF725
:405FC00050BBDDE90E234FF00208CDE902233FE5079B002B3FF4B3AE0D9D002D7FF7DCAEDDE9020100221C4BFCF7AAFB06460F4608F10100CDE90267FCF73CFB02460B46B8
:4060000030463946FCF79CFB0F4B0022FCF7E6F9059B0646013B1393A1F15077AC4638E53922B2463A704E467D1CFFF7FEBBDDE9102300200949FCF7CFF932463B46FCF772
:406040000FFE70B9A8E600BF00001C40000014407082000038830000000024400000E03F154615F8013C6A1E302BF9D0139B0593FFF7CFBA4346A0461C46DDF808B0139B9B
:406080000593FFF7B4BAB946FFF768BBBCF1390FC6D0BAF1000F7FF7BCAE05F1310CB8E67FF4B7AE1CF0010F3FF4B3AEABE64FF000084646A5E5229B022B04DC0D9BFEE50B
:4060C0004FF00208C4E40D9B079315E6229B022BF9DC0D9BFFF7E5BB002565642946204601F006F84FF0FF3307930D9301230890239520640A93FFF7CBB93FF444ABC0F136
:406100003C00FFF73BBB01230A9355E50125FFF789B900BFAFF300808B892DE9F0419AB20D46110780463CD46A6843F40063002AAB8165DDAE6A002E4BD09BB203F480529A
:40614000002192B2D8F80040C8F80010002A5BD02A6D5F0705D569682B6B521A0BB1EB6BD21A4046E9690023B047461C56D0AB892A6923F400639BB200212A60DA04AB8120
:4061800069603BD4296BC8F8004011B305F14003994202D0404600F065F900202863BDE8F0812E69AEB191072C680CBF6B6900232E60A41BAB600AE0324623466F6A4046CE
:4061C000E969B8470028A4EB0004064404DD002CF2DC0020BDE8F081AB894FF0FF3043F04003AB81BDE8F081AB892A6923F400639BB2AB81DB0469602A60C3D52865C1E725
:40620000EA6B002A96DCE4E701234046E969B047431C024619D0AB89AE6A9AE7D8F800100029E1D01D2907D0162905D0AB8943F04003AB81BDE8F081AB89296923F400633B
:406240000022AB8185E806009CE7D8F80030002BE1D01D2B01D0162BBED1C8F80040B8E710B5044682B008B1836B53B1B1F90C0008B902B010BD204602B0BDE81040FFF791
:406280004BBF019100F080F80199EFE7014900F051BB00BF557D00002DE9F04F074635487D68002407F53B7204230321F863C7F8E412C7F8E822C7F8E04283B02C606C6032
:4062C000AC606C66EC812C616C61AC61AB81214605F15C000822FDF795FBDFF89CB0BE68DFF898A0DFF89890DFF8988001230922C5F820B0C5F824A0C5F82890C5F82C80D8
:40630000ED612146F381B28106F15C0034607460B460746634617461B46108220193FDF771FBFD6812200222F661C6F820B0C6F824A0C6F82890C6F82C802146A881EA81BE
:406340002C606C60AC606C662C616C61AC6105F15C000822FDF756FB019BED61C5F820B0C5F824A0C5F82890C5F82C80BB6303B0BDE8F08F8D620000F17A0000157B00000A
:406380004D7B00006D7B0000836B03B17047FFF783BF00BF704700BF704700BF38B5084B084DED1AAC1018BFED1805D0013C55F8043D9847002CF9D1BDE8384001F0DCBF9F
:4063C0008483000088830000F8B50C46224F064600F08AFEBB685D6825F00305291B01F6EF7121F47F6121F00F01A1F58054B4F5805F07DB3046002101F068FBBB682B4450
:40640000984204D0304600F071FE0020F8BD3046614201F05BFB01300DD0104BBA6819682D1B45F001053046091B5560196000F05DFE0120F8BD3046002101F047FBBA6840
:40644000831A0F2BDEDD064C0449246843F00103001B53600860D5E7B885FF1F148AFF1FC489FF1F00294ED02DE9F0410C46804600F03AFE54F8047C6249A4F1080527F0B6
:406480000102AB188E6858689E4220F003005AD0FE0758600BD454F8087C01F1080EED1BAC683A44744567D0EF68E760BC601C186468E4070CD4544F9C680244BC427CD089
:4064C000D86842F00103E06084606B60AA5003E042F001036B60AA50B2F5007F14D2D20801EBC20301244868921004FA02F29C681043AC60EB6048609D60E5604046BDE89C
:40650000F04100F0F3BD7047530A042B47D8930903F13804600001EB800083683949834243D0596821F00301914202D99B689842F7D1DA68EA60AB6040469560DD60BDE82E
:40654000F04100F0D3BDFF07024407D454F8084C2D1BEB68A8682244C36098602B4B42F001001B6868609A428D60C7D3284B40461968FFF729FFC1E719184968C90709D451
:40658000D96802449B6842F00100D9608B606860AA50B3E742F001036B60AA50AEE7142B14D803F15B046000B5E74A68A4100120A04002434A601A46BCE742F001034D6157
:4065C0000D61EC60AC606B60AA5097E7542B04D8130B03F16E0460009DE7B3F5AA7F04D8D30B03F17704600095E740F25450834204D8930C03F17C0460008CE7FC207E24DE
:4066000089E700BFB885FF1FC085FF1FC089FF1F108AFF1F9368002B00F0B1802DE9F04FB1F80CE083B01EF0080F0C468146164628D00B6933B30EF002081FFA88F03568C8
:4066400080B34FF0000BD846DFF8E4A2B8F1000F00F08F80D0454346484628BF5346E1695A46676AB847002840F3A880B36883441B1AC0EB0808B360002BE7D1002003B0E7
:40668000BDE8F08F48462146FEF7E6FC002840F04681B4F80CE035680EF002081FFA88F00028CED11EF0010B40F09180D846B8F1000F58D01EF4007FA76862D0B845BA460E
:4066C000C0F0C2801EF4906F00F0C08067692169236807EB47075B1A07EBD777581C7F10404487423A463CBF07463A461EF4806F009300F0FB801146484600F0C1F9009BCC
:406700008246002800F00E811A4621690093FDF703F9A289009B22F4906242F08002A2810AEB0300C4F810A0FB1A6761C24647462060A3605246594600F072FCA068226858
:40674000C01BA060404602EB0A032360B36883441B1AC0EB0808B360002B8FD0B4F80CE0B8F1000FA6D1D5F800B0D5F8048008359DE7D5F800B0D5F80480083566E70020FE
:40678000704720682369984203D86269904580F08580474528BF474659463A4600F040FCA3682268DB1B3A44A3602260002B49D148462146FFF754FD002843D0A38943F050
:4067C00040034FF0FF30A38103B0BDE8F08F8046834682460090BAF1000F2BD0009B002B4FD0D045434628BF5346206821691F468842D4F808E0626903D90EEB020C634503
:406800005EDC934224DB1346676A4846E1695A46B847071ED2DDB8EB070829D0B368BB44DB1BC7EB0A0AB360002B3FF427AFBAF1000FD3D10023D5F800B0D5F804A000930B
:406840000835C8E7384681E74746C246206871E71A465946019300F0E3FBA2682168019BB8EB0708A2EB03020B44A2602360D5D148462146FFF7F4FC00289FD1CDF80080CB
:40688000CCE758460A21524600F080FB002841D001300123CBEB00080093A2E76FF00043434528BF434693FBF2F3676A03FB02F34846E1695A46B84700283FF747AF7DE7F1
:4068C00062465946CDF804C000F0AAFB2368DDF804C04846634423602146FFF7C1FCDDF804C000287FF46AAF674694E7484600F0FDFE009B824600287FF412AF4846216978
:40690000FFF7B0FDA3890C2223F080039BB2C9F8002054E701230AF10108009361E74FF0FF30ACE60C23C9F80030A38947E700BF00FCFF7F2DE9F84310F538761ED08846E5
:4069400007464FF000097568B468013D10D4A389013D012B08D9B4F90E30013304D038462146C04749EA00096B1C04F16804EED13668002EE7D14846BDE8F883B146484677
:40698000BDE8F883004870479485FF1F014B1868704700BFB485FF1F004870475C85FF1F8B899AB212F0020F3CD1F0B50C46B1F90E1091B00029054619DB01AA01F076FAF6
:4069C000002812DB029B03F47043A3F50057B7FA87F7B3F5004F4FEA57172AD0A3894FF4806643F40063A3810BE0A3899AB212F0800F43F40063A3810CBF4FF48066402666
:406A000000272846314600F03BF8A38940B31A4A43F08003EA63A3812060206166619FB911B0F0BD01F1430301220B600B614A617047124BA26A9A42D0D1A3894FF4806620
:406A40003343A381E664DCE72846B4F90E1001F041FA0028E4D0A38943F00103A381DFE79A05DDD404F1430243F002030121A381226022616161D3E78D6200004D7B0000A1
:406A80002DE9F04F01F10B05162D83B0064627D935F0070500F1B680A94200F2B38000F023FBB5F5FC7F22D2BC4FE80807EBC003DC689C4200F0BC816368E16823F0030302
:406AC00023445A68A56842F00102E96030468D605A6000F00BFB0834204603B0BDE8F08F102900F28F8000F0FFFA1025DCE7680A00F08F80042800F24781A809383041008A
:406B0000A64F07EB8101CC68A14206D10CE0002A80F28280E468A14206D0636823F003035A1B0F2AF3DD013801309C493C6901F1080E744500F07181636823F003035A1B1D
:406B40000F2A00F35781002AC1F814E0C1F810E066DAB3F5007F80F02D81DB0801EBC3084FEAA30C4A68012303FA0CF3D8F808C01343C4F808C0C4F80C804B60C8F808404B
:406B8000CCF80C408210012494409C4255D8234206D120F003006400234200F10400FAD007EBC008C4468146DCF80C309C4507D135E1002980F24581DB689C4500F02F81C9
:406BC0005A6822F00302511B0F29F2DD1C46DA6854F808CF45F0010941F001081D44C3F804903046CCF80C20C2F808C07D613D61C5F80CE0C5F808E0C5F80480695000F0BD
:406C000075FA69E7002420460C23336003B0BDE8F08F7E213F2073E723445A68E16851E723445A68304642F001025A60083400F05DFA204603B0BDE8F08FBC68636823F020
:406C40000308454504D8C5EB08030F2B00F38C80534BDFF85CA11A68DAF800302A44013304EB080B00F0518102F580520F3222F47F6222F00F0211463046019200F026FFBA
:406C8000B0F1FF3F8146019A00F04881834500F2EF80444BCB4519681144196000F04381DAF80000DFF808E101301BBFCBEB090B5944CEF80090196019F0070100F00881B2
:406CC000C1F10800C1F58051814408314A44C2F30B02C2EB010A51463046019300F0F6FE431C019B00F02D81C9EB0002524442F001021968BC425144C7F808901960C9F809
:406D00000420DFF8A0A016D0B8F10F0F40F2EF806268A8F10C0323F0070302F00102E0184FF0050E1A430F2B6260C0F804E0C0F808E000F20A811C4BBC681A68914288BFC3
:406D400019601A4B1A689142626888BF196022F003029542A2EB050301D80F2B04DC304600F0C4F90024B7E645F0010243F00103254462603046BD6008346B6000F0B6F929
:406D8000204603B0BDE8F08F142869D9542800F29880280B6E304100B2E600BFB885FF1F108AFF1F148AFF1F0C8AFF1F088AFF1FC489FF1F5A0A042A55D9142A00F2A78074
:406DC0005B324FEA420C07EB8C0CDCF80810DFF8B88161457FD04A6822F00302934202D289688C45F7D1CA687B68E260A1609460CC60C7E645F0010742F001032544676040
:406E000030464D610D61C5F80CE0C5F808E06B60AA50083400F06AF95EE64B68B2E609F1010919F0030F0CF1080C7FF4BDAE2CE004F108036469A34208BF02303FF475AE74
:406E40003AE61C461A445168DB6854F8085F41F0010151603046EB609D6000F047F93BE65B3041004CE69A0938324FEA420CAAE7BC42454B3FF40DAF9C68626822F003020B
:406E800067E7D8F8008098457CD110F0030FA8F1080300F1FF30F4D17B6823EA04037B6064009C423FF6C9AE002C3FF4C6AE234248467FF475AE6400234200F10400FAD0CB
:406EC0006EE6B0F5AA7F18D8E80B7730410017E64FF48051FAE6D8F8043092104FF0010C0CFA02F21343C8F804300A467DE70123C9F804304C4600222BE740F25453984238
:406F00001CD8A80C7C304100FAE51032B3E6542A23D81A0B6E324FEA420C54E7BC68626822F0030215E7CBF30B0000287FF4B8AE4244BB6842F001025A60FCE6FC217E2002
:406F4000DEE501224FF0000AD3E604F108013046FFF788FADAF80010EDE6B2F5AA7F04D8DA0B77324FEA420C2DE740F254518A4204D89A0C7C324FEA420C24E74FF0FC0C07
:406F80007E2220E77B688BE7B885FF1F830770B4C9B240D0541E002A3FD003788B4218BF431C05D11CE0ECB10278013C8A4217D013F0030F184603F10103F4D1032C14D8F4
:406FC00084B103788B420BD00519431C02E002788A4205D0AB42184603F10103F7D1002070BC7047204670BC7047024641EA012646EA0646136810467340A3F1013525EAF5
:40700000030313F0803F02F10402D9D1043C032C1046EFD8D4E71446D0E71046E0E700BF8842F0B50DD98B1898420AD28118002A54D09A1A13F8014D934201F8014DF9D129
:40704000F0BD0F2A48D940EA01039B0747D1154600F1100401F1100353F8106C103D44F8106C53F80C6C0F2D44F80C6C53F8086C04F1100444F8186C53F8046C03F11003F3
:4070800044F8146CE8D8A2F1100323F00F0302F00F0E1033BEF1030F1944034421D90E4674461D1F56F8047B043C032C45F8047FF8D8AEF1040424F00304043423442144FC
:4070C00002F0030252B1013B0A4411F8014B914203F8014FF9D1F0BD0346F3E7F0BD0346F1E77246EEE700BF704700BF704700BFC26C70B505460C4652B152F824308BB12C
:40710000196842F82410002218461A61DA6070BD2122042100F0DCFDE86402460028ECD1002070BD012101FA04F6721D2846920000F0CEFD03460028F2D044608660E2E720
:4071400031B1C36C4A6853F82200086043F82210704700BFF0B50C4605460E6983B001F1140E0027DEF80010013788B2090C02FB003302FB01F198B201EB134300EB034126
:40718000BE424EF8041B4FEA1343EBDC3BB1A268964207DA04EB8602013653612661204603B0F0BD6168284601310193FFF7A0FF0746226904F10C01023292000C30FCF755
:4071C000ABFBEA6C6168019B52F82100206042F821403C46DEE700BF030C1B04B3B90004102310F07F4F04BF0002083310F0704F04BF0001043310F0404F04BF8000023342
:40720000002807DB420003D4202070470023E8E7581C704718467047036813F0070207D0D90720D49A0720D49B0803600220704799B209B91B0C102213F0FF0F04BF1B0A0D
